{"contracts/SimpleGame.sol":{"SimpleGame":{"abi":[{"anonymous":false,"inputs":[{"indexed":true,"internalType":"address","name":"player","type":"address"},{"indexed":true,"internalType":"uint256","name":"gameId","type":"uint256"},{"indexed":false,"internalType":"uint256","name":"score","type":"uint256"},{"indexed":false,"internalType":"uint256","name":"timestamp","type":"uint256"}],"name":"GameCompleted","type":"event"},{"anonymous":false,"inputs":[{"indexed":true,"internalType":"address","name":"player","type":"address"},{"indexed":true,"internalType":"uint256","name":"gameId","type":"uint256"},{"indexed":false,"internalType":"uint256","name":"timestamp","type":"uint256"}],"name":"GameStarted","type":"event"},{"inputs":[],"name":"GAME_FEE","outputs":[{"internalType":"uint256","name":"","type":"uint256"}],"stateMutability":"view","type":"function"},{"inputs":[{"internalType":"uint256","name":"_gameId","type":"uint256"},{"internalType":"uint256","name":"_score","type":"uint256"}],"name":"endPaidGame","outputs":[],"stateMutability":"nonpayable","type":"function"},{"inputs":[],"name":"gameCounter","outputs":[{"internalType":"uint256","name":"","type":"uint256"}],"stateMutability":"view","type":"function"},{"inputs":[],"name":"getStats","outputs":[{"internalType":"uint256","name":"_totalGames","type":"uint256"},{"internalType":"uint256","name":"_contractBalance","type":"uint256"}],"stateMutability":"view","type":"function"},{"inputs":[],"name":"startPaidGame","outputs":[{"internalType":"uint256","name":"","type":"uint256"}],"stateMutability":"payable","type":"function"},{"stateMutability":"payable","type":"receive"}],"evm":{"bytecode":{"linkReferences":{},"object":"608060405234801561001057600080fd5b5061029f806100206000396000f3fe60806040526004361061004e5760003560e01c80631001333a1461005a5780632e0be39a14610088578063425b92d11461009e5780635e3f7541146100c0578063c59d4847146100c857600080fd5b3661005557005b600080fd5b34801561006657600080fd5b5061007566038d7ea4c6800081565b6040519081526020015b60405180910390f35b34801561009457600080fd5b5061007560005481565b3480156100aa57600080fd5b506100be6100b9366004610220565b6100eb565b005b610075610180565b3480156100d457600080fd5b50600054604080519182524760208301520161007f565b6000821180156100fd57506000548211155b6101405760405162461bcd60e51b815260206004820152600f60248201526e125b9d985b1a590819d85b59481251608a1b60448201526064015b60405180910390fd5b60408051828152426020820152839133917f02bc913790ab631ec32c90d78f72b9b8ef68289c2dcd586f7da9c36b244a2ed4910160405180910390a35050565b600066038d7ea4c6800034146101cd5760405162461bcd60e51b8152602060048201526012602482015271496e636f72726563742067616d652066656560701b6044820152606401610137565b6000805490806101dc83610242565b9091555050600054604051428152819033907f2ebc740a82c0c6454a29c8aa9db57c66257e2f17d38a783c83c83dd49f52e0fb9060200160405180910390a3919050565b6000806040838503121561023357600080fd5b50508035926020909101359150565b60006001820161026257634e487b7160e01b600052601160045260246000fd5b506001019056fea2646970667358221220754e51dccfdc93f2d5d88722515ef948e9fb61e021bdf0d4b7b1b35ba6bb668164736f6c63430008130033","opcodes":"PUSH1 0x80 PUSH1 0x40 MSTORE CALLVALUE DUP1 ISZERO PUSH2 0x10 JUMPI PUSH1 0x0 DUP1 REVERT JUMPDEST POP PUSH2 0x29F DUP1 PUSH2 0x20 PUSH1 0x0 CODECOPY PUSH1 0x0 RETURN INVALID PUSH1 0x80 PUSH1 0x40 MSTORE PUSH1 0x4 CALLDATASIZE LT PUSH2 0x4E JUMPI PUSH1 0x0 CALLDATALOAD PUSH1 0xE0 SHR DUP1 PUSH4 0x1001333A EQ PUSH2 0x5A JUMPI DUP1 PUSH4 0x2E0BE39A EQ PUSH2 0x88 JUMPI DUP1 PUSH4 0x425B92D1 EQ PUSH2 0x9E JUMPI DUP1 PUSH4 0x5E3F7541 EQ PUSH2 0xC0 JUMPI DUP1 PUSH4 0xC59D4847 EQ PUSH2 0xC8 JUMPI PUSH1 0x0 DUP1 REVERT JUMPDEST CALLDATASIZE PUSH2 0x55 JUMPI STOP JUMPDEST PUSH1 0x0 DUP1 REVERT JUMPDEST CALLVALUE DUP1 ISZERO PUSH2 0x66 JUMPI PUSH1 0x0 DUP1 REVERT JUMPDEST POP PUSH2 0x75 PUSH7 0x38D7EA4C68000 DUP2 JUMP JUMPDEST PUSH1 0x40 MLOAD SWAP1 DUP2 MSTORE PUSH1 0x20 ADD JUMPDEST PUSH1 0x40 MLOAD DUP1 SWAP2 SUB SWAP1 RETURN JUMPDEST CALLVALUE DUP1 ISZERO PUSH2 0x94 JUMPI PUSH1 0x0 DUP1 REVERT JUMPDEST POP PUSH2 0x75 PUSH1 0x0 SLOAD DUP2 JUMP JUMPDEST CALLVALUE DUP1 ISZERO PUSH2 0xAA JUMPI PUSH1 0x0 DUP1 REVERT JUMPDEST POP PUSH2 0xBE PUSH2 0xB9 CALLDATASIZE PUSH1 0x4 PUSH2 0x220 JUMP JUMPDEST PUSH2 0xEB JUMP JUMPDEST STOP JUMPDEST PUSH2 0x75 PUSH2 0x180 JUMP JUMPDEST CALLVALUE DUP1 ISZERO PUSH2 0xD4 JUMPI PUSH1 0x0 DUP1 REVERT JUMPDEST POP PUSH1 0x0 SLOAD PUSH1 0x40 DUP1 MLOAD SWAP2 DUP3 MSTORE SELFBALANCE PUSH1 0x20 DUP4 ADD MSTORE ADD PUSH2 0x7F JUMP JUMPDEST PUSH1 0x0 DUP3 GT DUP1 ISZERO PUSH2 0xFD JUMPI POP PUSH1 0x0 SLOAD DUP3 GT ISZERO JUMPDEST PUSH2 0x140 JUMPI PUSH1 0x40 MLOAD PUSH3 0x461BCD PUSH1 0xE5 SHL DUP2 MSTORE PUSH1 0x20 PUSH1 0x4 DUP3 ADD MSTORE PUSH1 0xF PUSH1 0x24 DUP3 ADD MSTORE PUSH15 0x125B9D985B1A590819D85B59481251 PUSH1 0x8A SHL PUSH1 0x44 DUP3 ADD MSTORE PUSH1 0x64 ADD JUMPDEST PUSH1 0x40 MLOAD DUP1 SWAP2 SUB SWAP1 REVERT JUMPDEST PUSH1 0x40 DUP1 MLOAD DUP3 DUP2 MSTORE TIMESTAMP PUSH1 0x20 DUP3 ADD MSTORE DUP4 SWAP2 CALLER SWAP2 PUSH32 0x2BC913790AB631EC32C90D78F72B9B8EF68289C2DCD586F7DA9C36B244A2ED4 SWAP2 ADD PUSH1 0x40 MLOAD DUP1 SWAP2 SUB SWAP1 LOG3 POP POP JUMP JUMPDEST PUSH1 0x0 PUSH7 0x38D7EA4C68000 CALLVALUE EQ PUSH2 0x1CD JUMPI PUSH1 0x40 MLOAD PUSH3 0x461BCD PUSH1 0xE5 SHL DUP2 MSTORE PUSH1 0x20 PUSH1 0x4 DUP3 ADD MSTORE PUSH1 0x12 PUSH1 0x24 DUP3 ADD MSTORE PUSH18 0x496E636F72726563742067616D6520666565 PUSH1 0x70 SHL PUSH1 0x44 DUP3 ADD MSTORE PUSH1 0x64 ADD PUSH2 0x137 JUMP JUMPDEST PUSH1 0x0 DUP1 SLOAD SWAP1 DUP1 PUSH2 0x1DC DUP4 PUSH2 0x242 JUMP JUMPDEST SWAP1 SWAP2 SSTORE POP POP PUSH1 0x0 SLOAD PUSH1 0x40 MLOAD TIMESTAMP DUP2 MSTORE DUP2 SWAP1 CALLER SWAP1 PUSH32 0x2EBC740A82C0C6454A29C8AA9DB57C66257E2F17D38A783C83C83DD49F52E0FB SWAP1 PUSH1 0x20 ADD PUSH1 0x40 MLOAD DUP1 SWAP2 SUB SWAP1 LOG3 SWAP2 SWAP1 POP JUMP JUMPDEST PUSH1 0x0 DUP1 PUSH1 0x40 DUP4 DUP6 SUB SLT ISZERO PUSH2 0x233 JUMPI PUSH1 0x0 DUP1 REVERT JUMPDEST POP POP DUP1 CALLDATALOAD SWAP3 PUSH1 0x20 SWAP1 SWAP2 ADD CALLDATALOAD SWAP2 POP JUMP JUMPDEST PUSH1 0x0 PUSH1 0x1 DUP3 ADD PUSH2 0x262 JUMPI PUSH4 0x4E487B71 PUSH1 0xE0 SHL PUSH1 0x0 MSTORE PUSH1 0x11 PUSH1 0x4 MSTORE PUSH1 0x24 PUSH1 0x0 REVERT JUMPDEST POP PUSH1 0x1 ADD SWAP1 JUMP INVALID LOG2 PUSH5 0x6970667358 0x22 SLT KECCAK256 PUSH22 0x4E51DCCFDC93F2D5D88722515EF948E9FB61E021BDF0 0xD4 0xB7 0xB1 0xB3 JUMPDEST 0xA6 0xBB PUSH7 0x8164736F6C6343 STOP ADDMOD SGT STOP CALLER "},"methodIdentifiers":{"GAME_FEE()":"1001333a","endPaidGame(uint256,uint256)":"425b92d1","gameCounter()":"2e0be39a","getStats()":"c59d4847","startPaidGame()":"5e3f7541"}}}}}