{
  "_format": "hh-sol-artifact-1",
  "contractName": "DapperDuck",
  "sourceName": "contracts/DapperDuck.sol",
  "abi": [
    {
      "inputs": [],
      "stateMutability": "nonpayable",
      "type": "constructor"
    },
    {
      "anonymous": false,
      "inputs": [
        {
          "indexed": true,
          "internalType": "address",
          "name": "player",
          "type": "address"
        },
        {
          "indexed": true,
          "internalType": "uint256",
          "name": "gameId",
          "type": "uint256"
        },
        {
          "indexed": false,
          "internalType": "uint256",
          "name": "score",
          "type": "uint256"
        },
        {
          "indexed": false,
          "internalType": "uint256",
          "name": "timestamp",
          "type": "uint256"
        }
      ],
      "name": "GameCompleted",
      "type": "event"
    },
    {
      "anonymous": false,
      "inputs": [
        {
          "indexed": true,
          "internalType": "address",
          "name": "player",
          "type": "address"
        },
        {
          "indexed": false,
          "internalType": "uint256",
          "name": "amount",
          "type": "uint256"
        },
        {
          "indexed": false,
          "internalType": "uint256",
          "name": "gameId",
          "type": "uint256"
        }
      ],
      "name": "GamePaid",
      "type": "event"
    },
    {
      "anonymous": false,
      "inputs": [
        {
          "indexed": true,
          "internalType": "address",
          "name": "player",
          "type": "address"
        },
        {
          "indexed": true,
          "internalType": "uint256",
          "name": "gameId",
          "type": "uint256"
        },
        {
          "indexed": false,
          "internalType": "uint256",
          "name": "timestamp",
          "type": "uint256"
        }
      ],
      "name": "GameStarted",
      "type": "event"
    },
    {
      "anonymous": false,
      "inputs": [
        {
          "indexed": true,
          "internalType": "address",
          "name": "previousOwner",
          "type": "address"
        },
        {
          "indexed": true,
          "internalType": "address",
          "name": "newOwner",
          "type": "address"
        }
      ],
      "name": "OwnershipTransferred",
      "type": "event"
    },
    {
      "anonymous": false,
      "inputs": [
        {
          "indexed": false,
          "internalType": "address",
          "name": "account",
          "type": "address"
        }
      ],
      "name": "Paused",
      "type": "event"
    },
    {
      "anonymous": false,
      "inputs": [
        {
          "indexed": true,
          "internalType": "address",
          "name": "player",
          "type": "address"
        },
        {
          "indexed": false,
          "internalType": "uint256",
          "name": "amount",
          "type": "uint256"
        }
      ],
      "name": "PlayerRewardClaimed",
      "type": "event"
    },
    {
      "anonymous": false,
      "inputs": [
        {
          "indexed": false,
          "internalType": "uint256",
          "name": "treasuryAmount",
          "type": "uint256"
        },
        {
          "indexed": false,
          "internalType": "uint256",
          "name": "playersAmount",
          "type": "uint256"
        }
      ],
      "name": "RevenueDistributed",
      "type": "event"
    },
    {
      "anonymous": false,
      "inputs": [
        {
          "indexed": true,
          "internalType": "address",
          "name": "to",
          "type": "address"
        },
        {
          "indexed": false,
          "internalType": "uint256",
          "name": "amount",
          "type": "uint256"
        }
      ],
      "name": "TreasuryWithdrawn",
      "type": "event"
    },
    {
      "anonymous": false,
      "inputs": [
        {
          "indexed": false,
          "internalType": "address",
          "name": "account",
          "type": "address"
        }
      ],
      "name": "Unpaused",
      "type": "event"
    },
    {
      "anonymous": false,
      "inputs": [
        {
          "indexed": true,
          "internalType": "uint256",
          "name": "week",
          "type": "uint256"
        },
        {
          "indexed": false,
          "internalType": "address[]",
          "name": "winners",
          "type": "address[]"
        },
        {
          "indexed": false,
          "internalType": "uint256[]",
          "name": "amounts",
          "type": "uint256[]"
        }
      ],
      "name": "WeeklyRewardsDistributed",
      "type": "event"
    },
    {
      "inputs": [],
      "name": "GAME_FEE",
      "outputs": [
        {
          "internalType": "uint256",
          "name": "",
          "type": "uint256"
        }
      ],
      "stateMutability": "view",
      "type": "function"
    },
    {
      "inputs": [],
      "name": "MAX_LEADERBOARD_SIZE",
      "outputs": [
        {
          "internalType": "uint256",
          "name": "",
          "type": "uint256"
        }
      ],
      "stateMutability": "view",
      "type": "function"
    },
    {
      "inputs": [],
      "name": "PLAYERS_PERCENTAGE",
      "outputs": [
        {
          "internalType": "uint256",
          "name": "",
          "type": "uint256"
        }
      ],
      "stateMutability": "view",
      "type": "function"
    },
    {
      "inputs": [],
      "name": "TREASURY_PERCENTAGE",
      "outputs": [
        {
          "internalType": "uint256",
          "name": "",
          "type": "uint256"
        }
      ],
      "stateMutability": "view",
      "type": "function"
    },
    {
      "inputs": [],
      "name": "WEEK_DURATION",
      "outputs": [
        {
          "internalType": "uint256",
          "name": "",
          "type": "uint256"
        }
      ],
      "stateMutability": "view",
      "type": "function"
    },
    {
      "inputs": [],
      "name": "currentWeek",
      "outputs": [
        {
          "internalType": "uint256",
          "name": "",
          "type": "uint256"
        }
      ],
      "stateMutability": "view",
      "type": "function"
    },
    {
      "inputs": [],
      "name": "distributeWeeklyRewards",
      "outputs": [],
      "stateMutability": "nonpayable",
      "type": "function"
    },
    {
      "inputs": [],
      "name": "emergencyWithdraw",
      "outputs": [],
      "stateMutability": "nonpayable",
      "type": "function"
    },
    {
      "inputs": [
        {
          "internalType": "uint256",
          "name": "_gameId",
          "type": "uint256"
        },
        {
          "internalType": "uint256",
          "name": "_score",
          "type": "uint256"
        },
        {
          "internalType": "bool",
          "name": "",
          "type": "bool"
        }
      ],
      "name": "endPaidGame",
      "outputs": [],
      "stateMutability": "nonpayable",
      "type": "function"
    },
    {
      "inputs": [],
      "name": "gameCounter",
      "outputs": [
        {
          "internalType": "uint256",
          "name": "",
          "type": "uint256"
        }
      ],
      "stateMutability": "view",
      "type": "function"
    },
    {
      "inputs": [
        {
          "internalType": "uint256",
          "name": "",
          "type": "uint256"
        }
      ],
      "name": "gameSessions",
      "outputs": [
        {
          "internalType": "address",
          "name": "player",
          "type": "address"
        },
        {
          "internalType": "uint256",
          "name": "startTime",
          "type": "uint256"
        },
        {
          "internalType": "uint256",
          "name": "gameId",
          "type": "uint256"
        },
        {
          "internalType": "bool",
          "name": "isActive",
          "type": "bool"
        },
        {
          "internalType": "uint256",
          "name": "score",
          "type": "uint256"
        },
        {
          "internalType": "bool",
          "name": "completed",
          "type": "bool"
        }
      ],
      "stateMutability": "view",
      "type": "function"
    },
    {
      "inputs": [],
      "name": "getCurrentLeaderboard",
      "outputs": [
        {
          "components": [
            {
              "internalType": "address",
              "name": "player",
              "type": "address"
            },
            {
              "internalType": "uint256",
              "name": "score",
              "type": "uint256"
            },
            {
              "internalType": "uint256",
              "name": "timestamp",
              "type": "uint256"
            },
            {
              "internalType": "bool",
              "name": "claimed",
              "type": "bool"
            }
          ],
          "internalType": "struct DapperDuck.LeaderboardEntry[]",
          "name": "",
          "type": "tuple[]"
        }
      ],
      "stateMutability": "view",
      "type": "function"
    },
    {
      "inputs": [
        {
          "internalType": "uint256",
          "name": "_gameId",
          "type": "uint256"
        }
      ],
      "name": "getGameSession",
      "outputs": [
        {
          "components": [
            {
              "internalType": "address",
              "name": "player",
              "type": "address"
            },
            {
              "internalType": "uint256",
              "name": "startTime",
              "type": "uint256"
            },
            {
              "internalType": "uint256",
              "name": "gameId",
              "type": "uint256"
            },
            {
              "internalType": "bool",
              "name": "isActive",
              "type": "bool"
            },
            {
              "internalType": "uint256",
              "name": "score",
              "type": "uint256"
            },
            {
              "internalType": "bool",
              "name": "completed",
              "type": "bool"
            }
          ],
          "internalType": "struct DapperDuck.GameSession",
          "name": "",
          "type": "tuple"
        }
      ],
      "stateMutability": "view",
      "type": "function"
    },
    {
      "inputs": [
        {
          "internalType": "address",
          "name": "_player",
          "type": "address"
        }
      ],
      "name": "getPlayerGames",
      "outputs": [
        {
          "internalType": "uint256[]",
          "name": "",
          "type": "uint256[]"
        }
      ],
      "stateMutability": "view",
      "type": "function"
    },
    {
      "inputs": [],
      "name": "getStats",
      "outputs": [
        {
          "internalType": "uint256",
          "name": "_totalGames",
          "type": "uint256"
        },
        {
          "internalType": "uint256",
          "name": "_totalRevenue",
          "type": "uint256"
        },
        {
          "internalType": "uint256",
          "name": "_treasuryBalance",
          "type": "uint256"
        },
        {
          "internalType": "uint256",
          "name": "_playersRewardPool",
          "type": "uint256"
        },
        {
          "internalType": "uint256",
          "name": "_currentWeek",
          "type": "uint256"
        },
        {
          "internalType": "uint256",
          "name": "_weekStartTime",
          "type": "uint256"
        }
      ],
      "stateMutability": "view",
      "type": "function"
    },
    {
      "inputs": [
        {
          "internalType": "address",
          "name": "_player",
          "type": "address"
        }
      ],
      "name": "isGameActive",
      "outputs": [
        {
          "internalType": "bool",
          "name": "",
          "type": "bool"
        }
      ],
      "stateMutability": "view",
      "type": "function"
    },
    {
      "inputs": [],
      "name": "owner",
      "outputs": [
        {
          "internalType": "address",
          "name": "",
          "type": "address"
        }
      ],
      "stateMutability": "view",
      "type": "function"
    },
    {
      "inputs": [],
      "name": "pause",
      "outputs": [],
      "stateMutability": "nonpayable",
      "type": "function"
    },
    {
      "inputs": [],
      "name": "paused",
      "outputs": [
        {
          "internalType": "bool",
          "name": "",
          "type": "bool"
        }
      ],
      "stateMutability": "view",
      "type": "function"
    },
    {
      "inputs": [
        {
          "internalType": "address",
          "name": "",
          "type": "address"
        },
        {
          "internalType": "uint256",
          "name": "",
          "type": "uint256"
        }
      ],
      "name": "playerGames",
      "outputs": [
        {
          "internalType": "uint256",
          "name": "",
          "type": "uint256"
        }
      ],
      "stateMutability": "view",
      "type": "function"
    },
    {
      "inputs": [
        {
          "internalType": "address",
          "name": "",
          "type": "address"
        }
      ],
      "name": "playerTotalGames",
      "outputs": [
        {
          "internalType": "uint256",
          "name": "",
          "type": "uint256"
        }
      ],
      "stateMutability": "view",
      "type": "function"
    },
    {
      "inputs": [
        {
          "internalType": "address",
          "name": "",
          "type": "address"
        }
      ],
      "name": "playerTotalSpent",
      "outputs": [
        {
          "internalType": "uint256",
          "name": "",
          "type": "uint256"
        }
      ],
      "stateMutability": "view",
      "type": "function"
    },
    {
      "inputs": [],
      "name": "playersRewardPool",
      "outputs": [
        {
          "internalType": "uint256",
          "name": "",
          "type": "uint256"
        }
      ],
      "stateMutability": "view",
      "type": "function"
    },
    {
      "inputs": [],
      "name": "renounceOwnership",
      "outputs": [],
      "stateMutability": "nonpayable",
      "type": "function"
    },
    {
      "inputs": [],
      "name": "startPaidGame",
      "outputs": [
        {
          "internalType": "uint256",
          "name": "",
          "type": "uint256"
        }
      ],
      "stateMutability": "payable",
      "type": "function"
    },
    {
      "inputs": [],
      "name": "totalRevenue",
      "outputs": [
        {
          "internalType": "uint256",
          "name": "",
          "type": "uint256"
        }
      ],
      "stateMutability": "view",
      "type": "function"
    },
    {
      "inputs": [
        {
          "internalType": "address",
          "name": "newOwner",
          "type": "address"
        }
      ],
      "name": "transferOwnership",
      "outputs": [],
      "stateMutability": "nonpayable",
      "type": "function"
    },
    {
      "inputs": [],
      "name": "treasuryBalance",
      "outputs": [
        {
          "internalType": "uint256",
          "name": "",
          "type": "uint256"
        }
      ],
      "stateMutability": "view",
      "type": "function"
    },
    {
      "inputs": [],
      "name": "unpause",
      "outputs": [],
      "stateMutability": "nonpayable",
      "type": "function"
    },
    {
      "inputs": [],
      "name": "weekStartTime",
      "outputs": [
        {
          "internalType": "uint256",
          "name": "",
          "type": "uint256"
        }
      ],
      "stateMutability": "view",
      "type": "function"
    },
    {
      "inputs": [
        {
          "internalType": "uint256",
          "name": "",
          "type": "uint256"
        },
        {
          "internalType": "uint256",
          "name": "",
          "type": "uint256"
        }
      ],
      "name": "weeklyLeaderboards",
      "outputs": [
        {
          "internalType": "address",
          "name": "player",
          "type": "address"
        },
        {
          "internalType": "uint256",
          "name": "score",
          "type": "uint256"
        },
        {
          "internalType": "uint256",
          "name": "timestamp",
          "type": "uint256"
        },
        {
          "internalType": "bool",
          "name": "claimed",
          "type": "bool"
        }
      ],
      "stateMutability": "view",
      "type": "function"
    },
    {
      "inputs": [],
      "name": "withdrawTreasury",
      "outputs": [],
      "stateMutability": "nonpayable",
      "type": "function"
    },
    {
      "stateMutability": "payable",
      "type": "receive"
    }
  ],
  "bytecode": "0x608060405234801561001057600080fd5b50600160005561001f33610038565b6001805460ff60a01b191681556006554260075561008a565b600180546001600160a01b038381166001600160a01b0319831681179093556040519116919082907f8be0079c531659141344cd1fd0a4f28419497f9722a3daafe3b4186f6b6457e090600090a35050565b611c29806100996000396000f3fe6080604052600436106101e75760003560e01c8063715018a611610102578063c28232a411610095578063db87714211610064578063db8771421461069b578063e425ecc2146106b0578063f2fde38b146106dd578063f9cd84f8146106fd57600080fd5b8063c28232a41461060f578063c59d484714610624578063d42cf1dd14610670578063db2e21bc1461068657600080fd5b80638cd05e6a116100d15780638cd05e6a146102e05780638da5cb5b146105b15780639b39d6df146105d9578063bf2d9e0b146105f957600080fd5b8063715018a61461046157806376f5f700146104765780638456cb591461048d5780638ab06fea146104a257600080fd5b8063313dab201161017a578063491db66811610149578063491db668146103e8578063565ec1331461040a5780635c975abb1461043a5780635e3f75411461045957600080fd5b8063313dab201461030b57806334a8014b146103215780633f4ba83a146103bd57806344b38437146103d257600080fd5b8063129daf84116101b6578063129daf841461029c578063166bab95146102c9578063173b31d8146102e05780632e0be39a146102f557600080fd5b806306575c891461020b5780630a5694c2146102345780630fbde7e2146102545780631001333a1461028157600080fd5b366102065734600460008282546101fe919061194b565b925050819055005b600080fd5b34801561021757600080fd5b5061022160065481565b6040519081526020015b60405180910390f35b34801561024057600080fd5b5061022161024f366004611980565b610749565b34801561026057600080fd5b5061022161026f3660046119aa565b600c6020526000908152604090205481565b34801561028d57600080fd5b5061022166038d7ea4c6800081565b3480156102a857600080fd5b506102bc6102b73660046119aa565b61077a565b60405161022b9190611a07565b3480156102d557600080fd5b506102de6107e6565b005b3480156102ec57600080fd5b50610221603281565b34801561030157600080fd5b5061022160025481565b34801561031757600080fd5b5061022160045481565b34801561032d57600080fd5b5061038261033c366004611a1a565b6008602052600090815260409020805460018201546002830154600384015460048501546005909501546001600160a01b03909416949293919260ff9182169290911686565b604080516001600160a01b039097168752602087019590955293850192909252151560608401526080830152151560a082015260c00161022b565b3480156103c957600080fd5b506102de6108ea565b3480156103de57600080fd5b5061022160055481565b3480156103f457600080fd5b506103fd6108fa565b60405161022b9190611a33565b34801561041657600080fd5b5061042a6104253660046119aa565b61099c565b604051901515815260200161022b565b34801561044657600080fd5b50600154600160a01b900460ff1661042a565b610221610a6e565b34801561046d57600080fd5b506102de610d27565b34801561048257600080fd5b5061022162093a8081565b34801561049957600080fd5b506102de610d39565b3480156104ae57600080fd5b5061055d6104bd366004611a1a565b6040805160c081018252600080825260208201819052918101829052606081018290526080810182905260a081019190915250600090815260086020908152604091829020825160c08101845281546001600160a01b03168152600182015492810192909252600281015492820192909252600382015460ff9081161515606083015260048301546080830152600590920154909116151560a082015290565b60405161022b919081516001600160a01b0316815260208083015190820152604080830151908201526060808301511515908201526080808301519082015260a09182015115159181019190915260c00190565b3480156105bd57600080fd5b506001546040516001600160a01b03909116815260200161022b565b3480156105e557600080fd5b506102de6105f4366004611aa2565b610d49565b34801561060557600080fd5b5061022160035481565b34801561061b57600080fd5b506102de610f64565b34801561063057600080fd5b50600254600354600454600554600654600754604080519687526020870195909552938501929092526060840152608083015260a082015260c00161022b565b34801561067c57600080fd5b5061022160075481565b34801561069257600080fd5b506102de611361565b3480156106a757600080fd5b50610221600f81565b3480156106bc57600080fd5b506102216106cb3660046119aa565b600b6020526000908152604090205481565b3480156106e957600080fd5b506102de6106f83660046119aa565b6113f4565b34801561070957600080fd5b5061071d610718366004611ae0565b61146a565b604080516001600160a01b0390951685526020850193909352918301521515606082015260800161022b565b6009602052816000526040600020818154811061076557600080fd5b90600052602060002001600091509150505481565b6001600160a01b0381166000908152600960209081526040918290208054835181840281018401909452808452606093928301828280156107da57602002820191906000526020600020905b8154815260200190600101908083116107c6575b50505050509050919050565b6107ee6114bd565b6107f6611517565b6000600454116108415760405162461bcd60e51b81526020600482015260116024820152704e6f2074726561737572792066756e647360781b60448201526064015b60405180910390fd5b6004805460009091556001546001600160a01b03166001600160a01b03166108fc829081150290604051600060405180830381858888f1935050505015801561088e573d6000803e3d6000fd5b506001546001600160a01b03166001600160a01b03167f41fdd680478135993bc53fb2ffaf9560951b57ef62ff6badd02b61e018b4f17f826040516108d591815260200190565b60405180910390a2506108e86001600055565b565b6108f26114bd565b6108e8611570565b6060600a60006006548152602001908152602001600020805480602002602001604051908101604052809291908181526020016000905b82821015610993576000848152602090819020604080516080810182526004860290920180546001600160a01b03168352600180820154848601526002820154928401929092526003015460ff16151560608301529083529092019101610931565b50505050905090565b6001600160a01b0381166000908152600960209081526040808320805482518185028101850190935280835284938301828280156109f957602002820191906000526020600020905b8154815260200190600101908083116109e5575b5050505050905060005b8151811015610a645760086000838381518110610a2257610a22611b02565b60209081029190910181015182528101919091526040016000206003015460ff1615610a52575060019392505050565b80610a5c81611b18565b915050610a03565b5060009392505050565b6000610a786115c5565b610a80611517565b66038d7ea4c680003414610acb5760405162461bcd60e51b8152602060048201526012602482015271496e636f72726563742067616d652066656560701b6044820152606401610838565b610ad43361099c565b15610b1a5760405162461bcd60e51b8152602060048201526016602482015275506c6179657220686173206163746976652067616d6560501b6044820152606401610838565b610b22611612565b60028054906000610b3283611b18565b9091555050600280546040805160c0810182523380825242602080840191825283850186815260016060860181815260006080880181815260a089018281528b8352600887528a832099518a546001600160a01b0319166001600160a01b03909116178a5596518985015593519a88019a909a555160038701805460ff19908116921515929092179055915160048701559251600590950180549091169415159490941790935581865260098352838620805491820181558652828620018490558452600b9052822080549192610c0883611b18565b9091555050336000908152600c602052604081208054349290610c2c90849061194b565b925050819055503460036000828254610c45919061194b565b9091555060649050610c58603234611b31565b610c629190611b48565b60056000828254610c73919061194b565b9091555060649050610c86603234611b31565b610c909190611b48565b60046000828254610ca1919061194b565b9091555050604080513481526020810183905233917f5d099d19286ca62214ae2447e4a51a119073902a5af38e2672af80f26d0c0643910160405180910390a2604051428152819033907f2ebc740a82c0c6454a29c8aa9db57c66257e2f17d38a783c83c83dd49f52e0fb9060200160405180910390a39050610d246001600055565b90565b610d2f6114bd565b6108e86000611644565b610d416114bd565b6108e8611696565b82600081118015610d5c57506002548111155b610d9a5760405162461bcd60e51b815260206004820152600f60248201526e125b9d985b1a590819d85b59481251608a1b6044820152606401610838565b600084815260086020526040902060030154849060ff16610def5760405162461bcd60e51b815260206004820152600f60248201526e47616d65206e6f742061637469766560881b6044820152606401610838565b60008581526008602052604090205485906001600160a01b03163314610e495760405162461bcd60e51b815260206004820152600f60248201526e2737ba1033b0b6b290383630bcb2b960891b6044820152606401610838565b610e51611517565b600086815260086020526040902060038101805460ff199081169091556004820187905560058201805490911660011790558515610f15576006546000908152600a6020908152604080832081516080810183523381528084018b81524293820193845260608201868152835460018082018655948852959096209151600490950290910180546001600160a01b0319166001600160a01b03909516949094178455519083015551600282015590516003909101805460ff19169115159190911790555b60408051878152426020820152889133917f02bc913790ab631ec32c90d78f72b9b8ef68289c2dcd586f7da9c36b244a2ed4910160405180910390a350610f5c6001600055565b505050505050565b610f6c6114bd565b610f74611517565b600060055411610fc65760405162461bcd60e51b815260206004820152601860248201527f4e6f207265776172647320746f206469737472696275746500000000000000006044820152606401610838565b6006546000908152600a60205260409020546110195760405162461bcd60e51b81526020600482015260126024820152714e6f2067616d65732074686973207765656b60701b6044820152606401610838565b6006546000908152600a60205260409020611033816116d9565b6005548154600090600f1061104957825461104c565b600f5b905060008167ffffffffffffffff81111561106957611069611b6a565b604051908082528060200260200182016040528015611092578160200160208202803683370190505b50905060008267ffffffffffffffff8111156110b0576110b0611b6a565b6040519080825280602002602001820160405280156110d9578160200160208202803683370190505b50905060005b838110156112d35760006110f482600161194b565b905060006002611106600f600161194b565b61111190600f611b31565b61111b9190611b48565b61112683600f611b80565b61113190600161194b565b61113b9089611b31565b6111459190611b48565b905087838154811061115957611159611b02565b600091825260209091206004909102015485516001600160a01b039091169086908590811061118a5761118a611b02565b60200260200101906001600160a01b031690816001600160a01b031681525050808484815181106111bd576111bd611b02565b60200260200101818152505060018884815481106111dd576111dd611b02565b906000526020600020906004020160030160006101000a81548160ff02191690831515021790555087838154811061121757611217611b02565b600091825260208220600490910201546040516001600160a01b039091169183156108fc02918491818181858888f1935050505015801561125c573d6000803e3d6000fd5b5087838154811061126f5761126f611b02565b6000918252602091829020600490910201546040518381526001600160a01b03909116917f99c1d8d70c81be48e2fa0a89c6e7b3f5c2542e0b619eb0040e9a956cb4973894910160405180910390a2505080806112cb90611b18565b9150506110df565b5060006005556006546040517fd8c4147db64b7fdbe6fc0c0af64acf0c77d5ad28565f258172ca02544055ecea9061130e9085908590611b93565b60405180910390a260045460408051918252602082018690527ff2838e4b541f90d41a1076a560d75e948f7d1008e72118a655568626a30b451f910160405180910390a150505050506108e86001600055565b6113696114bd565b600154600160a01b900460ff166113b85760405162461bcd60e51b815260206004820152601360248201527210dbdb9d1c9858dd081b9bdd081c185d5cd959606a1b6044820152606401610838565b6001546040516001600160a01b03909116904780156108fc02916000818181858888f193505050501580156113f1573d6000803e3d6000fd5b50565b6113fc6114bd565b6001600160a01b0381166114615760405162461bcd60e51b815260206004820152602660248201527f4f776e61626c653a206e6577206f776e657220697320746865207a65726f206160448201526564647265737360d01b6064820152608401610838565b6113f181611644565b600a602052816000526040600020818154811061148657600080fd5b600091825260209091206004909102018054600182015460028301546003909301546001600160a01b039092169450925060ff1684565b6001546001600160a01b031633146108e85760405162461bcd60e51b815260206004820181905260248201527f4f776e61626c653a2063616c6c6572206973206e6f7420746865206f776e65726044820152606401610838565b6002600054036115695760405162461bcd60e51b815260206004820152601f60248201527f5265656e7472616e637947756172643a207265656e7472616e742063616c6c006044820152606401610838565b6002600055565b6115786118e5565b6001805460ff60a01b191690557f5db9ee0a495bf2e6ff9c91a7834c1ba4fdd244a5e8aa4e537bd38aeae4b073aa335b6040516001600160a01b03909116815260200160405180910390a1565b600154600160a01b900460ff16156108e85760405162461bcd60e51b815260206004820152601060248201526f14185d5cd8589b194e881c185d5cd95960821b6044820152606401610838565b62093a80600754611623919061194b565b42106108e8576006805490600061163983611b18565b909155505042600755565b600180546001600160a01b038381166001600160a01b0319831681179093556040519116919082907f8be0079c531659141344cd1fd0a4f28419497f9722a3daafe3b4186f6b6457e090600090a35050565b61169e6115c5565b6001805460ff60a01b1916600160a01b1790557f62e78cea01bee320cd4e420270b5ea74000d11b0c9f74754ebdbfc544b05a2586115a83390565b60005b81548110156118e15760006116f282600161194b565b90505b82548110156118ce5782818154811061171057611710611b02565b90600052602060002090600402016001015483838154811061173457611734611b02565b90600052602060002090600402016001015410156118bc57600083838154811061176057611760611b02565b600091825260209182902060408051608081018252600490930290910180546001600160a01b0316835260018101549383019390935260028301549082015260039091015460ff161515606082015284549091508490839081106117c6576117c6611b02565b90600052602060002090600402018484815481106117e6576117e6611b02565b60009182526020909120825460049092020180546001600160a01b0319166001600160a01b0390921691909117815560018083015490820155600280830154908201556003918201549101805460ff909216151560ff199092169190911790558354819085908490811061185c5761185c611b02565b600091825260209182902083516004929092020180546001600160a01b0319166001600160a01b03909216919091178155908201516001820155604082015160028201556060909101516003909101805460ff1916911515919091179055505b806118c681611b18565b9150506116f5565b50806118d981611b18565b9150506116dc565b5050565b600154600160a01b900460ff166108e85760405162461bcd60e51b815260206004820152601460248201527314185d5cd8589b194e881b9bdd081c185d5cd95960621b6044820152606401610838565b634e487b7160e01b600052601160045260246000fd5b8082018082111561195e5761195e611935565b92915050565b80356001600160a01b038116811461197b57600080fd5b919050565b6000806040838503121561199357600080fd5b61199c83611964565b946020939093013593505050565b6000602082840312156119bc57600080fd5b6119c582611964565b9392505050565b600081518084526020808501945080840160005b838110156119fc578151875295820195908201906001016119e0565b509495945050505050565b6020815260006119c560208301846119cc565b600060208284031215611a2c57600080fd5b5035919050565b602080825282518282018190526000919060409081850190868401855b82811015611a9557815180516001600160a01b031685528681015187860152858101518686015260609081015115159085015260809093019290850190600101611a50565b5091979650505050505050565b600080600060608486031215611ab757600080fd5b833592506020840135915060408401358015158114611ad557600080fd5b809150509250925092565b60008060408385031215611af357600080fd5b50508035926020909101359150565b634e487b7160e01b600052603260045260246000fd5b600060018201611b2a57611b2a611935565b5060010190565b808202811582820484141761195e5761195e611935565b600082611b6557634e487b7160e01b600052601260045260246000fd5b500490565b634e487b7160e01b600052604160045260246000fd5b8181038181111561195e5761195e611935565b604080825283519082018190526000906020906060840190828701845b82811015611bd55781516001600160a01b031684529284019290840190600101611bb0565b50505083810382850152611be981866119cc565b969550505050505056fea2646970667358221220c5f2bc130e7a73620b417e206a392fddb263deca03359e9190a5a29db01a5a4f64736f6c63430008130033",
  "linkReferences": {},
  "deployedLinkReferences": {}
}