{
  "_format": "hh-sol-artifact-1",
  "contractName": "DapperDuckSimple",
  "sourceName": "contracts/DapperDuckSimple.sol",
  "abi": [
    {
      "anonymous": false,
      "inputs": [
        {
          "indexed": true,
          "internalType": "address",
          "name": "player",
          "type": "address"
        },
        {
          "indexed": true,
          "internalType": "uint256",
          "name": "gameId",
          "type": "uint256"
        },
        {
          "indexed": false,
          "internalType": "uint256",
          "name": "score",
          "type": "uint256"
        },
        {
          "indexed": false,
          "internalType": "uint256",
          "name": "timestamp",
          "type": "uint256"
        }
      ],
      "name": "GameCompleted",
      "type": "event"
    },
    {
      "anonymous": false,
      "inputs": [
        {
          "indexed": true,
          "internalType": "address",
          "name": "player",
          "type": "address"
        },
        {
          "indexed": true,
          "internalType": "uint256",
          "name": "gameId",
          "type": "uint256"
        },
        {
          "indexed": false,
          "internalType": "uint256",
          "name": "timestamp",
          "type": "uint256"
        }
      ],
      "name": "GameStarted",
      "type": "event"
    },
    {
      "anonymous": false,
      "inputs": [
        {
          "indexed": true,
          "internalType": "address",
          "name": "previousOwner",
          "type": "address"
        },
        {
          "indexed": true,
          "internalType": "address",
          "name": "newOwner",
          "type": "address"
        }
      ],
      "name": "OwnershipTransferred",
      "type": "event"
    },
    {
      "inputs": [],
      "name": "GAME_FEE",
      "outputs": [
        {
          "internalType": "uint256",
          "name": "",
          "type": "uint256"
        }
      ],
      "stateMutability": "view",
      "type": "function"
    },
    {
      "inputs": [
        {
          "internalType": "uint256",
          "name": "_gameId",
          "type": "uint256"
        },
        {
          "internalType": "uint256",
          "name": "_score",
          "type": "uint256"
        }
      ],
      "name": "endPaidGame",
      "outputs": [],
      "stateMutability": "nonpayable",
      "type": "function"
    },
    {
      "inputs": [],
      "name": "gameCounter",
      "outputs": [
        {
          "internalType": "uint256",
          "name": "",
          "type": "uint256"
        }
      ],
      "stateMutability": "view",
      "type": "function"
    },
    {
      "inputs": [],
      "name": "getStats",
      "outputs": [
        {
          "internalType": "uint256",
          "name": "_totalGames",
          "type": "uint256"
        },
        {
          "internalType": "uint256",
          "name": "_totalRevenue",
          "type": "uint256"
        },
        {
          "internalType": "uint256",
          "name": "_contractBalance",
          "type": "uint256"
        }
      ],
      "stateMutability": "view",
      "type": "function"
    },
    {
      "inputs": [],
      "name": "owner",
      "outputs": [
        {
          "internalType": "address",
          "name": "",
          "type": "address"
        }
      ],
      "stateMutability": "view",
      "type": "function"
    },
    {
      "inputs": [],
      "name": "renounceOwnership",
      "outputs": [],
      "stateMutability": "nonpayable",
      "type": "function"
    },
    {
      "inputs": [],
      "name": "startPaidGame",
      "outputs": [
        {
          "internalType": "uint256",
          "name": "",
          "type": "uint256"
        }
      ],
      "stateMutability": "payable",
      "type": "function"
    },
    {
      "inputs": [],
      "name": "totalRevenue",
      "outputs": [
        {
          "internalType": "uint256",
          "name": "",
          "type": "uint256"
        }
      ],
      "stateMutability": "view",
      "type": "function"
    },
    {
      "inputs": [
        {
          "internalType": "address",
          "name": "newOwner",
          "type": "address"
        }
      ],
      "name": "transferOwnership",
      "outputs": [],
      "stateMutability": "nonpayable",
      "type": "function"
    },
    {
      "inputs": [],
      "name": "withdraw",
      "outputs": [],
      "stateMutability": "nonpayable",
      "type": "function"
    },
    {
      "stateMutability": "payable",
      "type": "receive"
    }
  ],
  "bytecode": "0x608060405234801561001057600080fd5b5061001a3361001f565b61006f565b600080546001600160a01b038381166001600160a01b0319831681178455604051919092169283917f8be0079c531659141344cd1fd0a4f28419497f9722a3daafe3b4186f6b6457e09190a35050565b6105c08061007e6000396000f3fe6080604052600436106100955760003560e01c8063715018a611610059578063715018a61461013c5780638da5cb5b14610151578063bf2d9e0b14610179578063c59d48471461018f578063f2fde38b146101be57600080fd5b80631001333a146100b95780632e0be39a146100e75780633ccfd60b146100fd578063425b92d1146101145780635e3f75411461013457600080fd5b366100b45734600260008282546100ac9190610506565b925050819055005b600080fd5b3480156100c557600080fd5b506100d466038d7ea4c6800081565b6040519081526020015b60405180910390f35b3480156100f357600080fd5b506100d460015481565b34801561010957600080fd5b506101126101de565b005b34801561012057600080fd5b5061011261012f36600461051f565b61026d565b6100d46102fd565b34801561014857600080fd5b506101126103b9565b34801561015d57600080fd5b506000546040516001600160a01b0390911681526020016100de565b34801561018557600080fd5b506100d460025481565b34801561019b57600080fd5b5060015460025447604080519384526020840192909252908201526060016100de565b3480156101ca57600080fd5b506101126101d9366004610541565b6103cd565b6101e6610446565b47806102305760405162461bcd60e51b81526020600482015260146024820152734e6f2066756e647320746f20776974686472617760601b60448201526064015b60405180910390fd5b600080546040516001600160a01b039091169183156108fc02918491818181858888f19350505050158015610269573d6000803e3d6000fd5b5050565b60008211801561027f57506001548211155b6102bd5760405162461bcd60e51b815260206004820152600f60248201526e125b9d985b1a590819d85b59481251608a1b6044820152606401610227565b60408051828152426020820152839133917f02bc913790ab631ec32c90d78f72b9b8ef68289c2dcd586f7da9c36b244a2ed4910160405180910390a35050565b600066038d7ea4c68000341461034a5760405162461bcd60e51b8152602060048201526012602482015271496e636f72726563742067616d652066656560701b6044820152606401610227565b6001805490600061035a83610571565b91905055506000600154905034600260008282546103789190610506565b9091555050604051428152819033907f2ebc740a82c0c6454a29c8aa9db57c66257e2f17d38a783c83c83dd49f52e0fb9060200160405180910390a3919050565b6103c1610446565b6103cb60006104a0565b565b6103d5610446565b6001600160a01b03811661043a5760405162461bcd60e51b815260206004820152602660248201527f4f776e61626c653a206e6577206f776e657220697320746865207a65726f206160448201526564647265737360d01b6064820152608401610227565b610443816104a0565b50565b6000546001600160a01b031633146103cb5760405162461bcd60e51b815260206004820181905260248201527f4f776e61626c653a2063616c6c6572206973206e6f7420746865206f776e65726044820152606401610227565b600080546001600160a01b038381166001600160a01b0319831681178455604051919092169283917f8be0079c531659141344cd1fd0a4f28419497f9722a3daafe3b4186f6b6457e09190a35050565b634e487b7160e01b600052601160045260246000fd5b80820180821115610519576105196104f0565b92915050565b6000806040838503121561053257600080fd5b50508035926020909101359150565b60006020828403121561055357600080fd5b81356001600160a01b038116811461056a57600080fd5b9392505050565b600060018201610583576105836104f0565b506001019056fea26469706673582212204a091691def05303622a23a02a6cb7e5cc9c459ecc8489f36d8cf7b8262cb30064736f6c63430008130033",
  "linkReferences": {},
  "deployedLinkReferences": {}
}